{
  "_format": "hh-sol-artifact-1",
  "contractName": "GoldenDaoNFT",
  "sourceName": "contracts/GoldenDaoNFT.sol",
  "abi": [
    {
      "inputs": [],
      "stateMutability": "nonpayable",
      "type": "constructor"
    },
    {
      "anonymous": false,
      "inputs": [
        {
          "indexed": true,
          "internalType": "address",
          "name": "owner",
          "type": "address"
        },
        {
          "indexed": true,
          "internalType": "address",
          "name": "approved",
          "type": "address"
        },
        {
          "indexed": true,
          "internalType": "uint256",
          "name": "tokenId",
          "type": "uint256"
        }
      ],
      "name": "Approval",
      "type": "event"
    },
    {
      "anonymous": false,
      "inputs": [
        {
          "indexed": true,
          "internalType": "address",
          "name": "owner",
          "type": "address"
        },
        {
          "indexed": true,
          "internalType": "address",
          "name": "operator",
          "type": "address"
        },
        {
          "indexed": false,
          "internalType": "bool",
          "name": "approved",
          "type": "bool"
        }
      ],
      "name": "ApprovalForAll",
      "type": "event"
    },
    {
      "anonymous": false,
      "inputs": [
        {
          "indexed": true,
          "internalType": "address",
          "name": "previousOwner",
          "type": "address"
        },
        {
          "indexed": true,
          "internalType": "address",
          "name": "newOwner",
          "type": "address"
        }
      ],
      "name": "OwnershipTransferred",
      "type": "event"
    },
    {
      "anonymous": false,
      "inputs": [
        {
          "indexed": true,
          "internalType": "address",
          "name": "from",
          "type": "address"
        },
        {
          "indexed": true,
          "internalType": "address",
          "name": "to",
          "type": "address"
        },
        {
          "indexed": true,
          "internalType": "uint256",
          "name": "tokenId",
          "type": "uint256"
        }
      ],
      "name": "Transfer",
      "type": "event"
    },
    {
      "inputs": [
        {
          "internalType": "address",
          "name": "to",
          "type": "address"
        },
        {
          "internalType": "uint256",
          "name": "tokenId",
          "type": "uint256"
        }
      ],
      "name": "approve",
      "outputs": [],
      "stateMutability": "nonpayable",
      "type": "function"
    },
    {
      "inputs": [
        {
          "internalType": "address",
          "name": "owner",
          "type": "address"
        }
      ],
      "name": "balanceOf",
      "outputs": [
        {
          "internalType": "uint256",
          "name": "",
          "type": "uint256"
        }
      ],
      "stateMutability": "view",
      "type": "function"
    },
    {
      "inputs": [],
      "name": "baseTokenURI",
      "outputs": [
        {
          "internalType": "string",
          "name": "",
          "type": "string"
        }
      ],
      "stateMutability": "view",
      "type": "function"
    },
    {
      "inputs": [
        {
          "internalType": "uint256",
          "name": "tokenId",
          "type": "uint256"
        }
      ],
      "name": "getApproved",
      "outputs": [
        {
          "internalType": "address",
          "name": "",
          "type": "address"
        }
      ],
      "stateMutability": "view",
      "type": "function"
    },
    {
      "inputs": [],
      "name": "getCurrentStage",
      "outputs": [
        {
          "internalType": "uint256",
          "name": "",
          "type": "uint256"
        }
      ],
      "stateMutability": "view",
      "type": "function"
    },
    {
      "inputs": [],
      "name": "getPrivateSalePrice",
      "outputs": [
        {
          "internalType": "uint256",
          "name": "",
          "type": "uint256"
        }
      ],
      "stateMutability": "view",
      "type": "function"
    },
    {
      "inputs": [],
      "name": "getPublicSalePrice",
      "outputs": [
        {
          "internalType": "uint256",
          "name": "",
          "type": "uint256"
        }
      ],
      "stateMutability": "view",
      "type": "function"
    },
    {
      "inputs": [
        {
          "internalType": "address",
          "name": "owner",
          "type": "address"
        },
        {
          "internalType": "address",
          "name": "operator",
          "type": "address"
        }
      ],
      "name": "isApprovedForAll",
      "outputs": [
        {
          "internalType": "bool",
          "name": "",
          "type": "bool"
        }
      ],
      "stateMutability": "view",
      "type": "function"
    },
    {
      "inputs": [],
      "name": "name",
      "outputs": [
        {
          "internalType": "string",
          "name": "",
          "type": "string"
        }
      ],
      "stateMutability": "view",
      "type": "function"
    },
    {
      "inputs": [],
      "name": "owner",
      "outputs": [
        {
          "internalType": "address",
          "name": "",
          "type": "address"
        }
      ],
      "stateMutability": "view",
      "type": "function"
    },
    {
      "inputs": [],
      "name": "ownerMint",
      "outputs": [],
      "stateMutability": "nonpayable",
      "type": "function"
    },
    {
      "inputs": [
        {
          "internalType": "uint256",
          "name": "tokenId",
          "type": "uint256"
        }
      ],
      "name": "ownerOf",
      "outputs": [
        {
          "internalType": "address",
          "name": "",
          "type": "address"
        }
      ],
      "stateMutability": "view",
      "type": "function"
    },
    {
      "inputs": [],
      "name": "renounceOwnership",
      "outputs": [],
      "stateMutability": "nonpayable",
      "type": "function"
    },
    {
      "inputs": [
        {
          "internalType": "bytes32[]",
          "name": "merkleProof",
          "type": "bytes32[]"
        }
      ],
      "name": "requestPrivateSale",
      "outputs": [],
      "stateMutability": "payable",
      "type": "function"
    },
    {
      "inputs": [],
      "name": "requestPublicSale",
      "outputs": [],
      "stateMutability": "payable",
      "type": "function"
    },
    {
      "inputs": [
        {
          "internalType": "address",
          "name": "from",
          "type": "address"
        },
        {
          "internalType": "address",
          "name": "to",
          "type": "address"
        },
        {
          "internalType": "uint256",
          "name": "tokenId",
          "type": "uint256"
        }
      ],
      "name": "safeTransferFrom",
      "outputs": [],
      "stateMutability": "nonpayable",
      "type": "function"
    },
    {
      "inputs": [
        {
          "internalType": "address",
          "name": "from",
          "type": "address"
        },
        {
          "internalType": "address",
          "name": "to",
          "type": "address"
        },
        {
          "internalType": "uint256",
          "name": "tokenId",
          "type": "uint256"
        },
        {
          "internalType": "bytes",
          "name": "_data",
          "type": "bytes"
        }
      ],
      "name": "safeTransferFrom",
      "outputs": [],
      "stateMutability": "nonpayable",
      "type": "function"
    },
    {
      "inputs": [
        {
          "internalType": "address",
          "name": "operator",
          "type": "address"
        },
        {
          "internalType": "bool",
          "name": "approved",
          "type": "bool"
        }
      ],
      "name": "setApprovalForAll",
      "outputs": [],
      "stateMutability": "nonpayable",
      "type": "function"
    },
    {
      "inputs": [
        {
          "internalType": "string",
          "name": "baseURI",
          "type": "string"
        }
      ],
      "name": "setBaseURI",
      "outputs": [],
      "stateMutability": "nonpayable",
      "type": "function"
    },
    {
      "inputs": [
        {
          "internalType": "uint256",
          "name": "value",
          "type": "uint256"
        }
      ],
      "name": "setPrivateSalePrice",
      "outputs": [],
      "stateMutability": "nonpayable",
      "type": "function"
    },
    {
      "inputs": [
        {
          "internalType": "uint256",
          "name": "value",
          "type": "uint256"
        }
      ],
      "name": "setPublicSalePrice",
      "outputs": [],
      "stateMutability": "nonpayable",
      "type": "function"
    },
    {
      "inputs": [
        {
          "internalType": "uint256",
          "name": "value",
          "type": "uint256"
        }
      ],
      "name": "setStage",
      "outputs": [],
      "stateMutability": "nonpayable",
      "type": "function"
    },
    {
      "inputs": [
        {
          "internalType": "bytes32",
          "name": "merkleRoot",
          "type": "bytes32"
        }
      ],
      "name": "setWhitelistMerkleRoot",
      "outputs": [],
      "stateMutability": "nonpayable",
      "type": "function"
    },
    {
      "inputs": [
        {
          "internalType": "bytes4",
          "name": "interfaceId",
          "type": "bytes4"
        }
      ],
      "name": "supportsInterface",
      "outputs": [
        {
          "internalType": "bool",
          "name": "",
          "type": "bool"
        }
      ],
      "stateMutability": "view",
      "type": "function"
    },
    {
      "inputs": [],
      "name": "symbol",
      "outputs": [
        {
          "internalType": "string",
          "name": "",
          "type": "string"
        }
      ],
      "stateMutability": "view",
      "type": "function"
    },
    {
      "inputs": [
        {
          "internalType": "uint256",
          "name": "index",
          "type": "uint256"
        }
      ],
      "name": "tokenByIndex",
      "outputs": [
        {
          "internalType": "uint256",
          "name": "",
          "type": "uint256"
        }
      ],
      "stateMutability": "view",
      "type": "function"
    },
    {
      "inputs": [
        {
          "internalType": "address",
          "name": "owner",
          "type": "address"
        },
        {
          "internalType": "uint256",
          "name": "index",
          "type": "uint256"
        }
      ],
      "name": "tokenOfOwnerByIndex",
      "outputs": [
        {
          "internalType": "uint256",
          "name": "",
          "type": "uint256"
        }
      ],
      "stateMutability": "view",
      "type": "function"
    },
    {
      "inputs": [
        {
          "internalType": "uint256",
          "name": "tokenId",
          "type": "uint256"
        }
      ],
      "name": "tokenURI",
      "outputs": [
        {
          "internalType": "string",
          "name": "",
          "type": "string"
        }
      ],
      "stateMutability": "view",
      "type": "function"
    },
    {
      "inputs": [],
      "name": "totalSupply",
      "outputs": [
        {
          "internalType": "uint256",
          "name": "",
          "type": "uint256"
        }
      ],
      "stateMutability": "view",
      "type": "function"
    },
    {
      "inputs": [
        {
          "internalType": "address",
          "name": "from",
          "type": "address"
        },
        {
          "internalType": "address",
          "name": "to",
          "type": "address"
        },
        {
          "internalType": "uint256",
          "name": "tokenId",
          "type": "uint256"
        }
      ],
      "name": "transferFrom",
      "outputs": [],
      "stateMutability": "nonpayable",
      "type": "function"
    },
    {
      "inputs": [
        {
          "internalType": "address",
          "name": "newOwner",
          "type": "address"
        }
      ],
      "name": "transferOwnership",
      "outputs": [],
      "stateMutability": "nonpayable",
      "type": "function"
    },
    {
      "inputs": [],
      "name": "whitelistMerkleRoot",
      "outputs": [
        {
          "internalType": "bytes32",
          "name": "",
          "type": "bytes32"
        }
      ],
      "stateMutability": "view",
      "type": "function"
    },
    {
      "inputs": [],
      "name": "withdraw",
      "outputs": [],
      "stateMutability": "nonpayable",
      "type": "function"
    }
  ],
  "bytecode": "0x608060405260405180602001604052806000815250600c90805190602001906200002b9291906200020b565b506000600e556103786010556001601155600160125566038d7ea4c6800060135566038d7ea4c68000601455600060155560006016553480156200006e57600080fd5b506040518060400160405280600981526020017f476f6c64656e44616f00000000000000000000000000000000000000000000008152506040518060400160405280600381526020017f47445400000000000000000000000000000000000000000000000000000000008152508160009080519060200190620000f39291906200020b565b5080600190805190602001906200010c9291906200020b565b5050506200012f620001236200013d60201b60201c565b6200014560201b60201c565b6001600b8190555062000320565b600033905090565b6000600a60009054906101000a900473ffffffffffffffffffffffffffffffffffffffff16905081600a60006101000a81548173ffffffffffffffffffffffffffffffffffffffff021916908373ffffffffffffffffffffffffffffffffffffffff1602179055508173ffffffffffffffffffffffffffffffffffffffff168173ffffffffffffffffffffffffffffffffffffffff167f8be0079c531659141344cd1fd0a4f28419497f9722a3daafe3b4186f6b6457e060405160405180910390a35050565b8280546200021990620002bb565b90600052602060002090601f0160209004810192826200023d576000855562000289565b82601f106200025857805160ff191683800117855562000289565b8280016001018555821562000289579182015b82811115620002885782518255916020019190600101906200026b565b5b5090506200029891906200029c565b5090565b5b80821115620002b75760008160009055506001016200029d565b5090565b60006002820490506001821680620002d457607f821691505b60208210811415620002eb57620002ea620002f1565b5b50919050565b7f4e487b7100000000000000000000000000000000000000000000000000000000600052602260045260246000fd5b61493480620003306000396000f3fe6080604052600436106101ee5760003560e01c8063791a25191161010d578063b88d4fde116100a0578063d547cfb71161006f578063d547cfb7146106c6578063d7e66d38146106f1578063e985e9c5146106fb578063eedbe31d14610738578063f2fde38b14610763576101ee565b8063b88d4fde1461060c578063bc30af0b14610635578063bd32fb6614610660578063c87b56dd14610689576101ee565b806395d89b41116100dc57806395d89b4114610576578063a22cb465146105a1578063aa98e0c6146105ca578063b12dc991146105f5576101ee565b8063791a2519146104ce5780637bc36e04146104f75780638da5cb5b146105205780638e8bdd0d1461054b576101ee565b80633ccfd60b1161018557806355f804b31161015457806355f804b3146104145780636352211e1461043d57806370a082311461047a578063715018a6146104b7576101ee565b80633ccfd60b1461036e5780633eb1d7771461038557806342842e0e146103ae5780634f6ccce7146103d7576101ee565b8063136e032f116101c1578063136e032f146102c157806318160ddd146102dd57806323b872dd146103085780632f745c5914610331576101ee565b806301ffc9a7146101f357806306fdde0314610230578063081812fc1461025b578063095ea7b314610298575b600080fd5b3480156101ff57600080fd5b5061021a6004803603810190610215919061347b565b61078c565b6040516102279190613a9d565b60405180910390f35b34801561023c57600080fd5b50610245610806565b6040516102529190613ad3565b60405180910390f35b34801561026757600080fd5b50610282600480360381019061027d9190613512565b610898565b60405161028f9190613a36565b60405180910390f35b3480156102a457600080fd5b506102bf60048036038101906102ba91906133d1565b61091d565b005b6102db60048036038101906102d6919061340d565b610a35565b005b3480156102e957600080fd5b506102f2610cf9565b6040516102ff9190613e35565b60405180910390f35b34801561031457600080fd5b5061032f600480360381019061032a91906132cb565b610d06565b005b34801561033d57600080fd5b50610358600480360381019061035391906133d1565b610d66565b6040516103659190613e35565b60405180910390f35b34801561037a57600080fd5b50610383610e0b565b005b34801561039157600080fd5b506103ac60048036038101906103a79190613512565b610f3d565b005b3480156103ba57600080fd5b506103d560048036038101906103d091906132cb565b61104b565b005b3480156103e357600080fd5b506103fe60048036038101906103f99190613512565b61106b565b60405161040b9190613e35565b60405180910390f35b34801561042057600080fd5b5061043b600480360381019061043691906134cd565b611102565b005b34801561044957600080fd5b50610464600480360381019061045f9190613512565b611194565b6040516104719190613a36565b60405180910390f35b34801561048657600080fd5b506104a1600480360381019061049c9190613266565b611246565b6040516104ae9190613e35565b60405180910390f35b3480156104c357600080fd5b506104cc6112fe565b005b3480156104da57600080fd5b506104f560048036038101906104f09190613512565b611386565b005b34801561050357600080fd5b5061051e60048036038101906105199190613512565b61140c565b005b34801561052c57600080fd5b50610535611492565b6040516105429190613a36565b60405180910390f35b34801561055757600080fd5b506105606114bc565b60405161056d9190613e35565b60405180910390f35b34801561058257600080fd5b5061058b6114c6565b6040516105989190613ad3565b60405180910390f35b3480156105ad57600080fd5b506105c860048036038101906105c39190613395565b611558565b005b3480156105d657600080fd5b506105df61156e565b6040516105ec9190613ab8565b60405180910390f35b34801561060157600080fd5b5061060a611574565b005b34801561061857600080fd5b50610633600480360381019061062e919061331a565b611645565b005b34801561064157600080fd5b5061064a6116a7565b6040516106579190613e35565b60405180910390f35b34801561066c57600080fd5b5061068760048036038101906106829190613452565b6116b1565b005b34801561069557600080fd5b506106b060048036038101906106ab9190613512565b611737565b6040516106bd9190613ad3565b60405180910390f35b3480156106d257600080fd5b506106db6117de565b6040516106e89190613ad3565b60405180910390f35b6106f961186c565b005b34801561070757600080fd5b50610722600480360381019061071d919061328f565b611a5c565b60405161072f9190613a9d565b60405180910390f35b34801561074457600080fd5b5061074d611af0565b60405161075a9190613e35565b60405180910390f35b34801561076f57600080fd5b5061078a60048036038101906107859190613266565b611afa565b005b60007f780e9d63000000000000000000000000000000000000000000000000000000007bffffffffffffffffffffffffffffffffffffffffffffffffffffffff1916827bffffffffffffffffffffffffffffffffffffffffffffffffffffffff191614806107ff57506107fe82611bf2565b5b9050919050565b6060600080546108159061406f565b80601f01602080910402602001604051908101604052809291908181526020018280546108419061406f565b801561088e5780601f106108635761010080835404028352916020019161088e565b820191906000526020600020905b81548152906001019060200180831161087157829003601f168201915b5050505050905090565b60006108a382611cd4565b6108e2576040517f08c379a00000000000000000000000000000000000000000000000000000000081526004016108d990613cf5565b60405180910390fd5b6004600083815260200190815260200160002060009054906101000a900473ffffffffffffffffffffffffffffffffffffffff169050919050565b600061092882611194565b90508073ffffffffffffffffffffffffffffffffffffffff168373ffffffffffffffffffffffffffffffffffffffff161415610999576040517f08c379a000000000000000000000000000000000000000000000000000000000815260040161099090613d95565b60405180910390fd5b8073ffffffffffffffffffffffffffffffffffffffff166109b8611d40565b73ffffffffffffffffffffffffffffffffffffffff1614806109e757506109e6816109e1611d40565b611a5c565b5b610a26576040517f08c379a0000000000000000000000000000000000000000000000000000000008152600401610a1d90613c55565b60405180910390fd5b610a308383611d48565b505050565b8181601754610aac838380806020026020016040519081016040528093929190818152602001838360200280828437600081840152601f19601f820116905080830192505050505050508233604051602001610a9191906139e2565b60405160208183030381529060405280519060200120611e01565b610aeb576040517f08c379a0000000000000000000000000000000000000000000000000000000008152600401610ae290613c35565b60405180910390fd5b601054610af6610cf9565b10610b36576040517f08c379a0000000000000000000000000000000000000000000000000000000008152600401610b2d90613d75565b60405180910390fd5b6001600e5414610b7b576040517f08c379a0000000000000000000000000000000000000000000000000000000008152600401610b7290613af5565b60405180910390fd5b6000610b9260165442611e1890919063ffffffff16565b90506001601860003373ffffffffffffffffffffffffffffffffffffffff1673ffffffffffffffffffffffffffffffffffffffff1681526020019081526020016000205410610c16576040517f08c379a0000000000000000000000000000000000000000000000000000000008152600401610c0d90613df5565b60405180910390fd5b6013543414610c5a576040517f08c379a0000000000000000000000000000000000000000000000000000000008152600401610c5190613d15565b60405180910390fd5b610c62611e2e565b6001601860003373ffffffffffffffffffffffffffffffffffffffff1673ffffffffffffffffffffffffffffffffffffffff16815260200190815260200160002054610cae9190613ef4565b601860003373ffffffffffffffffffffffffffffffffffffffff1673ffffffffffffffffffffffffffffffffffffffff16815260200190815260200160002081905550505050505050565b6000600880549050905090565b610d17610d11611d40565b82611e53565b610d56576040517f08c379a0000000000000000000000000000000000000000000000000000000008152600401610d4d90613db5565b60405180910390fd5b610d61838383611f31565b505050565b6000610d7183611246565b8210610db2576040517f08c379a0000000000000000000000000000000000000000000000000000000008152600401610da990613b15565b60405180910390fd5b600660008473ffffffffffffffffffffffffffffffffffffffff1673ffffffffffffffffffffffffffffffffffffffff168152602001908152602001600020600083815260200190815260200160002054905092915050565b610e13611d40565b73ffffffffffffffffffffffffffffffffffffffff16610e31611492565b73ffffffffffffffffffffffffffffffffffffffff1614610e87576040517f08c379a0000000000000000000000000000000000000000000000000000000008152600401610e7e90613d35565b60405180910390fd5b6000610e91611492565b73ffffffffffffffffffffffffffffffffffffffff1647604051610eb490613a21565b60006040518083038185875af1925050503d8060008114610ef1576040519150601f19603f3d011682016040523d82523d6000602084013e610ef6565b606091505b5050905080610f3a576040517f08c379a0000000000000000000000000000000000000000000000000000000008152600401610f3190613bb5565b60405180910390fd5b50565b610f45611d40565b73ffffffffffffffffffffffffffffffffffffffff16610f63611492565b73ffffffffffffffffffffffffffffffffffffffff1614610fb9576040517f08c379a0000000000000000000000000000000000000000000000000000000008152600401610fb090613d35565b60405180910390fd5b6000811015610ffd576040517f08c379a0000000000000000000000000000000000000000000000000000000008152600401610ff490613e15565b60405180910390fd5b6003811115611041576040517f08c379a000000000000000000000000000000000000000000000000000000000815260040161103890613e15565b60405180910390fd5b80600e8190555050565b61106683838360405180602001604052806000815250611645565b505050565b6000611075610cf9565b82106110b6576040517f08c379a00000000000000000000000000000000000000000000000000000000081526004016110ad90613dd5565b60405180910390fd5b600882815481106110f0577f4e487b7100000000000000000000000000000000000000000000000000000000600052603260045260246000fd5b90600052602060002001549050919050565b61110a611d40565b73ffffffffffffffffffffffffffffffffffffffff16611128611492565b73ffffffffffffffffffffffffffffffffffffffff161461117e576040517f08c379a000000000000000000000000000000000000000000000000000000000815260040161117590613d35565b60405180910390fd5b8181600c919061118f929190613049565b505050565b6000806002600084815260200190815260200160002060009054906101000a900473ffffffffffffffffffffffffffffffffffffffff169050600073ffffffffffffffffffffffffffffffffffffffff168173ffffffffffffffffffffffffffffffffffffffff16141561123d576040517f08c379a000000000000000000000000000000000000000000000000000000000815260040161123490613c95565b60405180910390fd5b80915050919050565b60008073ffffffffffffffffffffffffffffffffffffffff168273ffffffffffffffffffffffffffffffffffffffff1614156112b7576040517f08c379a00000000000000000000000000000000000000000000000000000000081526004016112ae90613c75565b60405180910390fd5b600360008373ffffffffffffffffffffffffffffffffffffffff1673ffffffffffffffffffffffffffffffffffffffff168152602001908152602001600020549050919050565b611306611d40565b73ffffffffffffffffffffffffffffffffffffffff16611324611492565b73ffffffffffffffffffffffffffffffffffffffff161461137a576040517f08c379a000000000000000000000000000000000000000000000000000000000815260040161137190613d35565b60405180910390fd5b6113846000612198565b565b61138e611d40565b73ffffffffffffffffffffffffffffffffffffffff166113ac611492565b73ffffffffffffffffffffffffffffffffffffffff1614611402576040517f08c379a00000000000000000000000000000000000000000000000000000000081526004016113f990613d35565b60405180910390fd5b8060148190555050565b611414611d40565b73ffffffffffffffffffffffffffffffffffffffff16611432611492565b73ffffffffffffffffffffffffffffffffffffffff1614611488576040517f08c379a000000000000000000000000000000000000000000000000000000000815260040161147f90613d35565b60405180910390fd5b8060138190555050565b6000600a60009054906101000a900473ffffffffffffffffffffffffffffffffffffffff16905090565b6000601454905090565b6060600180546114d59061406f565b80601f01602080910402602001604051908101604052809291908181526020018280546115019061406f565b801561154e5780601f106115235761010080835404028352916020019161154e565b820191906000526020600020905b81548152906001019060200180831161153157829003601f168201915b5050505050905090565b61156a611563611d40565b838361225e565b5050565b60175481565b61157c611d40565b73ffffffffffffffffffffffffffffffffffffffff1661159a611492565b73ffffffffffffffffffffffffffffffffffffffff16146115f0576040517f08c379a00000000000000000000000000000000000000000000000000000000081526004016115e790613d35565b60405180910390fd5b6010546115fb610cf9565b1061163b576040517f08c379a000000000000000000000000000000000000000000000000000000000815260040161163290613d75565b60405180910390fd5b611643611e2e565b565b611656611650611d40565b83611e53565b611695576040517f08c379a000000000000000000000000000000000000000000000000000000000815260040161168c90613db5565b60405180910390fd5b6116a1848484846123cb565b50505050565b6000601354905090565b6116b9611d40565b73ffffffffffffffffffffffffffffffffffffffff166116d7611492565b73ffffffffffffffffffffffffffffffffffffffff161461172d576040517f08c379a000000000000000000000000000000000000000000000000000000000815260040161172490613d35565b60405180910390fd5b8060178190555050565b606061174282611cd4565b611781576040517f08c379a000000000000000000000000000000000000000000000000000000000815260040161177890613d55565b60405180910390fd5b600061178b612427565b905060008151116117ab57604051806020016040528060008152506117d6565b806117b5846124b9565b6040516020016117c69291906139fd565b6040516020818303038152906040525b915050919050565b600c80546117eb9061406f565b80601f01602080910402602001604051908101604052809291908181526020018280546118179061406f565b80156118645780601f1061183957610100808354040283529160200191611864565b820191906000526020600020905b81548152906001019060200180831161184757829003601f168201915b505050505081565b601054611877610cf9565b11156118b8576040517f08c379a00000000000000000000000000000000000000000000000000000000081526004016118af90613d75565b60405180910390fd5b6002600e54146118fd576040517f08c379a00000000000000000000000000000000000000000000000000000000081526004016118f490613cd5565b60405180910390fd5b6001601860003373ffffffffffffffffffffffffffffffffffffffff1673ffffffffffffffffffffffffffffffffffffffff168152602001908152602001600020541061197f576040517f08c379a000000000000000000000000000000000000000000000000000000000815260040161197690613df5565b60405180910390fd5b60145434146119c3576040517f08c379a00000000000000000000000000000000000000000000000000000000081526004016119ba90613d15565b60405180910390fd5b6119cb611e2e565b6001601860003373ffffffffffffffffffffffffffffffffffffffff1673ffffffffffffffffffffffffffffffffffffffff16815260200190815260200160002054611a179190613ef4565b601860003373ffffffffffffffffffffffffffffffffffffffff1673ffffffffffffffffffffffffffffffffffffffff16815260200190815260200160002081905550565b6000600560008473ffffffffffffffffffffffffffffffffffffffff1673ffffffffffffffffffffffffffffffffffffffff16815260200190815260200160002060008373ffffffffffffffffffffffffffffffffffffffff1673ffffffffffffffffffffffffffffffffffffffff16815260200190815260200160002060009054906101000a900460ff16905092915050565b6000600e54905090565b611b02611d40565b73ffffffffffffffffffffffffffffffffffffffff16611b20611492565b73ffffffffffffffffffffffffffffffffffffffff1614611b76576040517f08c379a0000000000000000000000000000000000000000000000000000000008152600401611b6d90613d35565b60405180910390fd5b600073ffffffffffffffffffffffffffffffffffffffff168173ffffffffffffffffffffffffffffffffffffffff161415611be6576040517f08c379a0000000000000000000000000000000000000000000000000000000008152600401611bdd90613b55565b60405180910390fd5b611bef81612198565b50565b60007f80ac58cd000000000000000000000000000000000000000000000000000000007bffffffffffffffffffffffffffffffffffffffffffffffffffffffff1916827bffffffffffffffffffffffffffffffffffffffffffffffffffffffff19161480611cbd57507f5b5e139f000000000000000000000000000000000000000000000000000000007bffffffffffffffffffffffffffffffffffffffffffffffffffffffff1916827bffffffffffffffffffffffffffffffffffffffffffffffffffffffff1916145b80611ccd5750611ccc82612666565b5b9050919050565b60008073ffffffffffffffffffffffffffffffffffffffff166002600084815260200190815260200160002060009054906101000a900473ffffffffffffffffffffffffffffffffffffffff1673ffffffffffffffffffffffffffffffffffffffff1614159050919050565b600033905090565b816004600083815260200190815260200160002060006101000a81548173ffffffffffffffffffffffffffffffffffffffff021916908373ffffffffffffffffffffffffffffffffffffffff160217905550808273ffffffffffffffffffffffffffffffffffffffff16611dbb83611194565b73ffffffffffffffffffffffffffffffffffffffff167f8c5be1e5ebec7d5bd14f71427d1e84f3dd0314c0f7b2291e5b200ac8c7c3b92560405160405180910390a45050565b600082611e0e85846126d0565b1490509392505050565b60008183611e269190613f7b565b905092915050565b611e38600f61276b565b6000611e44600f612781565b9050611e50338261278f565b50565b6000611e5e82611cd4565b611e9d576040517f08c379a0000000000000000000000000000000000000000000000000000000008152600401611e9490613c15565b60405180910390fd5b6000611ea883611194565b90508073ffffffffffffffffffffffffffffffffffffffff168473ffffffffffffffffffffffffffffffffffffffff161480611f1757508373ffffffffffffffffffffffffffffffffffffffff16611eff84610898565b73ffffffffffffffffffffffffffffffffffffffff16145b80611f285750611f278185611a5c565b5b91505092915050565b8273ffffffffffffffffffffffffffffffffffffffff16611f5182611194565b73ffffffffffffffffffffffffffffffffffffffff1614611fa7576040517f08c379a0000000000000000000000000000000000000000000000000000000008152600401611f9e90613b75565b60405180910390fd5b600073ffffffffffffffffffffffffffffffffffffffff168273ffffffffffffffffffffffffffffffffffffffff161415612017576040517f08c379a000000000000000000000000000000000000000000000000000000000815260040161200e90613bd5565b60405180910390fd5b6120228383836127ad565b61202d600082611d48565b6001600360008573ffffffffffffffffffffffffffffffffffffffff1673ffffffffffffffffffffffffffffffffffffffff168152602001908152602001600020600082825461207d9190613f7b565b925050819055506001600360008473ffffffffffffffffffffffffffffffffffffffff1673ffffffffffffffffffffffffffffffffffffffff16815260200190815260200160002060008282546120d49190613ef4565b92505081905550816002600083815260200190815260200160002060006101000a81548173ffffffffffffffffffffffffffffffffffffffff021916908373ffffffffffffffffffffffffffffffffffffffff160217905550808273ffffffffffffffffffffffffffffffffffffffff168473ffffffffffffffffffffffffffffffffffffffff167fddf252ad1be2c89b69c2b068fc378daa952ba7f163c4a11628f55a4df523b3ef60405160405180910390a46121938383836128c1565b505050565b6000600a60009054906101000a900473ffffffffffffffffffffffffffffffffffffffff16905081600a60006101000a81548173ffffffffffffffffffffffffffffffffffffffff021916908373ffffffffffffffffffffffffffffffffffffffff1602179055508173ffffffffffffffffffffffffffffffffffffffff168173ffffffffffffffffffffffffffffffffffffffff167f8be0079c531659141344cd1fd0a4f28419497f9722a3daafe3b4186f6b6457e060405160405180910390a35050565b8173ffffffffffffffffffffffffffffffffffffffff168373ffffffffffffffffffffffffffffffffffffffff1614156122cd576040517f08c379a00000000000000000000000000000000000000000000000000000000081526004016122c490613bf5565b60405180910390fd5b80600560008573ffffffffffffffffffffffffffffffffffffffff1673ffffffffffffffffffffffffffffffffffffffff16815260200190815260200160002060008473ffffffffffffffffffffffffffffffffffffffff1673ffffffffffffffffffffffffffffffffffffffff16815260200190815260200160002060006101000a81548160ff0219169083151502179055508173ffffffffffffffffffffffffffffffffffffffff168373ffffffffffffffffffffffffffffffffffffffff167f17307eab39ab6107e8899845ad3d59bd9653f200f220920489ca2b5937696c31836040516123be9190613a9d565b60405180910390a3505050565b6123d6848484611f31565b6123e2848484846128c6565b612421576040517f08c379a000000000000000000000000000000000000000000000000000000000815260040161241890613b35565b60405180910390fd5b50505050565b6060600c80546124369061406f565b80601f01602080910402602001604051908101604052809291908181526020018280546124629061406f565b80156124af5780601f10612484576101008083540402835291602001916124af565b820191906000526020600020905b81548152906001019060200180831161249257829003601f168201915b5050505050905090565b60606000821415612501576040518060400160405280600181526020017f30000000000000000000000000000000000000000000000000000000000000008152509050612661565b600082905060005b6000821461253357808061251c906140d2565b915050600a8261252c9190613f4a565b9150612509565b60008167ffffffffffffffff811115612575577f4e487b7100000000000000000000000000000000000000000000000000000000600052604160045260246000fd5b6040519080825280601f01601f1916602001820160405280156125a75781602001600182028036833780820191505090505b5090505b6000851461265a576001826125c09190613f7b565b9150600a856125cf919061413f565b60306125db9190613ef4565b60f81b818381518110612617577f4e487b7100000000000000000000000000000000000000000000000000000000600052603260045260246000fd5b60200101907effffffffffffffffffffffffffffffffffffffffffffffffffffffffffffff1916908160001a905350600a856126539190613f4a565b94506125ab565b8093505050505b919050565b60007f01ffc9a7000000000000000000000000000000000000000000000000000000007bffffffffffffffffffffffffffffffffffffffffffffffffffffffff1916827bffffffffffffffffffffffffffffffffffffffffffffffffffffffff1916149050919050565b60008082905060005b845181101561276057600085828151811061271d577f4e487b7100000000000000000000000000000000000000000000000000000000600052603260045260246000fd5b6020026020010151905080831161273f576127388382612a5d565b925061274c565b6127498184612a5d565b92505b508080612758906140d2565b9150506126d9565b508091505092915050565b6001816000016000828254019250508190555050565b600081600001549050919050565b6127a9828260405180602001604052806000815250612a74565b5050565b6127b8838383612acf565b600073ffffffffffffffffffffffffffffffffffffffff168373ffffffffffffffffffffffffffffffffffffffff1614156127fb576127f681612ad4565b61283a565b8173ffffffffffffffffffffffffffffffffffffffff168373ffffffffffffffffffffffffffffffffffffffff1614612839576128388382612b1d565b5b5b600073ffffffffffffffffffffffffffffffffffffffff168273ffffffffffffffffffffffffffffffffffffffff16141561287d5761287881612c8a565b6128bc565b8273ffffffffffffffffffffffffffffffffffffffff168273ffffffffffffffffffffffffffffffffffffffff16146128bb576128ba8282612dcd565b5b5b505050565b505050565b60006128e78473ffffffffffffffffffffffffffffffffffffffff16612e4c565b15612a50578373ffffffffffffffffffffffffffffffffffffffff1663150b7a02612910611d40565b8786866040518563ffffffff1660e01b81526004016129329493929190613a51565b602060405180830381600087803b15801561294c57600080fd5b505af192505050801561297d57506040513d601f19601f8201168201806040525081019061297a91906134a4565b60015b612a00573d80600081146129ad576040519150601f19603f3d011682016040523d82523d6000602084013e6129b2565b606091505b506000815114156129f8576040517f08c379a00000000000000000000000000000000000000000000000000000000081526004016129ef90613b35565b60405180910390fd5b805181602001fd5b63150b7a0260e01b7bffffffffffffffffffffffffffffffffffffffffffffffffffffffff1916817bffffffffffffffffffffffffffffffffffffffffffffffffffffffff191614915050612a55565b600190505b949350505050565b600082600052816020526040600020905092915050565b612a7e8383612e6f565b612a8b60008484846128c6565b612aca576040517f08c379a0000000000000000000000000000000000000000000000000000000008152600401612ac190613b35565b60405180910390fd5b505050565b505050565b6008805490506009600083815260200190815260200160002081905550600881908060018154018082558091505060019003906000526020600020016000909190919091505550565b60006001612b2a84611246565b612b349190613f7b565b9050600060076000848152602001908152602001600020549050818114612c19576000600660008673ffffffffffffffffffffffffffffffffffffffff1673ffffffffffffffffffffffffffffffffffffffff168152602001908152602001600020600084815260200190815260200160002054905080600660008773ffffffffffffffffffffffffffffffffffffffff1673ffffffffffffffffffffffffffffffffffffffff168152602001908152602001600020600084815260200190815260200160002081905550816007600083815260200190815260200160002081905550505b6007600084815260200190815260200160002060009055600660008573ffffffffffffffffffffffffffffffffffffffff1673ffffffffffffffffffffffffffffffffffffffff16815260200190815260200160002060008381526020019081526020016000206000905550505050565b60006001600880549050612c9e9190613f7b565b9050600060096000848152602001908152602001600020549050600060088381548110612cf4577f4e487b7100000000000000000000000000000000000000000000000000000000600052603260045260246000fd5b906000526020600020015490508060088381548110612d3c577f4e487b7100000000000000000000000000000000000000000000000000000000600052603260045260246000fd5b906000526020600020018190555081600960008381526020019081526020016000208190555060096000858152602001908152602001600020600090556008805480612db1577f4e487b7100000000000000000000000000000000000000000000000000000000600052603160045260246000fd5b6001900381819060005260206000200160009055905550505050565b6000612dd883611246565b905081600660008573ffffffffffffffffffffffffffffffffffffffff1673ffffffffffffffffffffffffffffffffffffffff168152602001908152602001600020600083815260200190815260200160002081905550806007600084815260200190815260200160002081905550505050565b6000808273ffffffffffffffffffffffffffffffffffffffff163b119050919050565b600073ffffffffffffffffffffffffffffffffffffffff168273ffffffffffffffffffffffffffffffffffffffff161415612edf576040517f08c379a0000000000000000000000000000000000000000000000000000000008152600401612ed690613cb5565b60405180910390fd5b612ee881611cd4565b15612f28576040517f08c379a0000000000000000000000000000000000000000000000000000000008152600401612f1f90613b95565b60405180910390fd5b612f34600083836127ad565b6001600360008473ffffffffffffffffffffffffffffffffffffffff1673ffffffffffffffffffffffffffffffffffffffff1681526020019081526020016000206000828254612f849190613ef4565b92505081905550816002600083815260200190815260200160002060006101000a81548173ffffffffffffffffffffffffffffffffffffffff021916908373ffffffffffffffffffffffffffffffffffffffff160217905550808273ffffffffffffffffffffffffffffffffffffffff16600073ffffffffffffffffffffffffffffffffffffffff167fddf252ad1be2c89b69c2b068fc378daa952ba7f163c4a11628f55a4df523b3ef60405160405180910390a4613045600083836128c1565b5050565b8280546130559061406f565b90600052602060002090601f01602090048101928261307757600085556130be565b82601f1061309057803560ff19168380011785556130be565b828001600101855582156130be579182015b828111156130bd5782358255916020019190600101906130a2565b5b5090506130cb91906130cf565b5090565b5b808211156130e85760008160009055506001016130d0565b5090565b60006130ff6130fa84613e75565b613e50565b90508281526020810184848401111561311757600080fd5b61312284828561402d565b509392505050565b6000813590506131398161488b565b92915050565b60008083601f84011261315157600080fd5b8235905067ffffffffffffffff81111561316a57600080fd5b60208301915083602082028301111561318257600080fd5b9250929050565b600081359050613198816148a2565b92915050565b6000813590506131ad816148b9565b92915050565b6000813590506131c2816148d0565b92915050565b6000815190506131d7816148d0565b92915050565b600082601f8301126131ee57600080fd5b81356131fe8482602086016130ec565b91505092915050565b60008083601f84011261321957600080fd5b8235905067ffffffffffffffff81111561323257600080fd5b60208301915083600182028301111561324a57600080fd5b9250929050565b600081359050613260816148e7565b92915050565b60006020828403121561327857600080fd5b60006132868482850161312a565b91505092915050565b600080604083850312156132a257600080fd5b60006132b08582860161312a565b92505060206132c18582860161312a565b9150509250929050565b6000806000606084860312156132e057600080fd5b60006132ee8682870161312a565b93505060206132ff8682870161312a565b925050604061331086828701613251565b9150509250925092565b6000806000806080858703121561333057600080fd5b600061333e8782880161312a565b945050602061334f8782880161312a565b935050604061336087828801613251565b925050606085013567ffffffffffffffff81111561337d57600080fd5b613389878288016131dd565b91505092959194509250565b600080604083850312156133a857600080fd5b60006133b68582860161312a565b92505060206133c785828601613189565b9150509250929050565b600080604083850312156133e457600080fd5b60006133f28582860161312a565b925050602061340385828601613251565b9150509250929050565b6000806020838503121561342057600080fd5b600083013567ffffffffffffffff81111561343a57600080fd5b6134468582860161313f565b92509250509250929050565b60006020828403121561346457600080fd5b60006134728482850161319e565b91505092915050565b60006020828403121561348d57600080fd5b600061349b848285016131b3565b91505092915050565b6000602082840312156134b657600080fd5b60006134c4848285016131c8565b91505092915050565b600080602083850312156134e057600080fd5b600083013567ffffffffffffffff8111156134fa57600080fd5b61350685828601613207565b92509250509250929050565b60006020828403121561352457600080fd5b600061353284828501613251565b91505092915050565b61354481613faf565b82525050565b61355b61355682613faf565b61411b565b82525050565b61356a81613fc1565b82525050565b61357981613fcd565b82525050565b600061358a82613ea6565b6135948185613ebc565b93506135a481856020860161403c565b6135ad8161422c565b840191505092915050565b60006135c382613eb1565b6135cd8185613ed8565b93506135dd81856020860161403c565b6135e68161422c565b840191505092915050565b60006135fc82613eb1565b6136068185613ee9565b935061361681856020860161403c565b80840191505092915050565b600061362f601783613ed8565b915061363a8261424a565b602082019050919050565b6000613652602b83613ed8565b915061365d82614273565b604082019050919050565b6000613675603283613ed8565b9150613680826142c2565b604082019050919050565b6000613698602683613ed8565b91506136a382614311565b604082019050919050565b60006136bb602583613ed8565b91506136c682614360565b604082019050919050565b60006136de601c83613ed8565b91506136e9826143af565b602082019050919050565b6000613701601483613ed8565b915061370c826143d8565b602082019050919050565b6000613724602483613ed8565b915061372f82614401565b604082019050919050565b6000613747601983613ed8565b915061375282614450565b602082019050919050565b600061376a602c83613ed8565b915061377582614479565b604082019050919050565b600061378d601e83613ed8565b9150613798826144c8565b602082019050919050565b60006137b0603883613ed8565b91506137bb826144f1565b604082019050919050565b60006137d3602a83613ed8565b91506137de82614540565b604082019050919050565b60006137f6602983613ed8565b91506138018261458f565b604082019050919050565b6000613819602083613ed8565b9150613824826145de565b602082019050919050565b600061383c601a83613ed8565b915061384782614607565b602082019050919050565b600061385f602c83613ed8565b915061386a82614630565b604082019050919050565b6000613882600d83613ed8565b915061388d8261467f565b602082019050919050565b60006138a5602083613ed8565b91506138b0826146a8565b602082019050919050565b60006138c8602f83613ed8565b91506138d3826146d1565b604082019050919050565b60006138eb601783613ed8565b91506138f682614720565b602082019050919050565b600061390e602183613ed8565b915061391982614749565b604082019050919050565b6000613931600083613ecd565b915061393c82614798565b600082019050919050565b6000613954603183613ed8565b915061395f8261479b565b604082019050919050565b6000613977602c83613ed8565b9150613982826147ea565b604082019050919050565b600061399a601183613ed8565b91506139a582614839565b602082019050919050565b60006139bd601583613ed8565b91506139c882614862565b602082019050919050565b6139dc81614023565b82525050565b60006139ee828461354a565b60148201915081905092915050565b6000613a0982856135f1565b9150613a1582846135f1565b91508190509392505050565b6000613a2c82613924565b9150819050919050565b6000602082019050613a4b600083018461353b565b92915050565b6000608082019050613a66600083018761353b565b613a73602083018661353b565b613a8060408301856139d3565b8181036060830152613a92818461357f565b905095945050505050565b6000602082019050613ab26000830184613561565b92915050565b6000602082019050613acd6000830184613570565b92915050565b60006020820190508181036000830152613aed81846135b8565b905092915050565b60006020820190508181036000830152613b0e81613622565b9050919050565b60006020820190508181036000830152613b2e81613645565b9050919050565b60006020820190508181036000830152613b4e81613668565b9050919050565b60006020820190508181036000830152613b6e8161368b565b9050919050565b60006020820190508181036000830152613b8e816136ae565b9050919050565b60006020820190508181036000830152613bae816136d1565b9050919050565b60006020820190508181036000830152613bce816136f4565b9050919050565b60006020820190508181036000830152613bee81613717565b9050919050565b60006020820190508181036000830152613c0e8161373a565b9050919050565b60006020820190508181036000830152613c2e8161375d565b9050919050565b60006020820190508181036000830152613c4e81613780565b9050919050565b60006020820190508181036000830152613c6e816137a3565b9050919050565b60006020820190508181036000830152613c8e816137c6565b9050919050565b60006020820190508181036000830152613cae816137e9565b9050919050565b60006020820190508181036000830152613cce8161380c565b9050919050565b60006020820190508181036000830152613cee8161382f565b9050919050565b60006020820190508181036000830152613d0e81613852565b9050919050565b60006020820190508181036000830152613d2e81613875565b9050919050565b60006020820190508181036000830152613d4e81613898565b9050919050565b60006020820190508181036000830152613d6e816138bb565b9050919050565b60006020820190508181036000830152613d8e816138de565b9050919050565b60006020820190508181036000830152613dae81613901565b9050919050565b60006020820190508181036000830152613dce81613947565b9050919050565b60006020820190508181036000830152613dee8161396a565b9050919050565b60006020820190508181036000830152613e0e8161398d565b9050919050565b60006020820190508181036000830152613e2e816139b0565b9050919050565b6000602082019050613e4a60008301846139d3565b92915050565b6000613e5a613e6b565b9050613e6682826140a1565b919050565b6000604051905090565b600067ffffffffffffffff821115613e9057613e8f6141fd565b5b613e998261422c565b9050602081019050919050565b600081519050919050565b600081519050919050565b600082825260208201905092915050565b600081905092915050565b600082825260208201905092915050565b600081905092915050565b6000613eff82614023565b9150613f0a83614023565b9250827fffffffffffffffffffffffffffffffffffffffffffffffffffffffffffffffff03821115613f3f57613f3e614170565b5b828201905092915050565b6000613f5582614023565b9150613f6083614023565b925082613f7057613f6f61419f565b5b828204905092915050565b6000613f8682614023565b9150613f9183614023565b925082821015613fa457613fa3614170565b5b828203905092915050565b6000613fba82614003565b9050919050565b60008115159050919050565b6000819050919050565b60007fffffffff0000000000000000000000000000000000000000000000000000000082169050919050565b600073ffffffffffffffffffffffffffffffffffffffff82169050919050565b6000819050919050565b82818337600083830152505050565b60005b8381101561405a57808201518184015260208101905061403f565b83811115614069576000848401525b50505050565b6000600282049050600182168061408757607f821691505b6020821081141561409b5761409a6141ce565b5b50919050565b6140aa8261422c565b810181811067ffffffffffffffff821117156140c9576140c86141fd565b5b80604052505050565b60006140dd82614023565b91507fffffffffffffffffffffffffffffffffffffffffffffffffffffffffffffffff8214156141105761410f614170565b5b600182019050919050565b60006141268261412d565b9050919050565b60006141388261423d565b9050919050565b600061414a82614023565b915061415583614023565b9250826141655761416461419f565b5b828206905092915050565b7f4e487b7100000000000000000000000000000000000000000000000000000000600052601160045260246000fd5b7f4e487b7100000000000000000000000000000000000000000000000000000000600052601260045260246000fd5b7f4e487b7100000000000000000000000000000000000000000000000000000000600052602260045260246000fd5b7f4e487b7100000000000000000000000000000000000000000000000000000000600052604160045260246000fd5b6000601f19601f8301169050919050565b60008160601b9050919050565b7f50726573616c65206973206e6f7420616c6c6f7765642e000000000000000000600082015250565b7f455243373231456e756d657261626c653a206f776e657220696e646578206f7560008201527f74206f6620626f756e6473000000000000000000000000000000000000000000602082015250565b7f4552433732313a207472616e7366657220746f206e6f6e20455243373231526560008201527f63656976657220696d706c656d656e7465720000000000000000000000000000602082015250565b7f4f776e61626c653a206e6577206f776e657220697320746865207a65726f206160008201527f6464726573730000000000000000000000000000000000000000000000000000602082015250565b7f4552433732313a207472616e736665722066726f6d20696e636f72726563742060008201527f6f776e6572000000000000000000000000000000000000000000000000000000602082015250565b7f4552433732313a20746f6b656e20616c7265616479206d696e74656400000000600082015250565b7f4661696c656420746f2073656e64204574686572000000000000000000000000600082015250565b7f4552433732313a207472616e7366657220746f20746865207a65726f2061646460008201527f7265737300000000000000000000000000000000000000000000000000000000602082015250565b7f4552433732313a20617070726f766520746f2063616c6c657200000000000000600082015250565b7f4552433732313a206f70657261746f7220717565727920666f72206e6f6e657860008201527f697374656e7420746f6b656e0000000000000000000000000000000000000000602082015250565b7f4164647265737320646f6573206e6f7420657869737420696e206c6973740000600082015250565b7f4552433732313a20617070726f76652063616c6c6572206973206e6f74206f7760008201527f6e6572206e6f7220617070726f76656420666f7220616c6c0000000000000000602082015250565b7f4552433732313a2062616c616e636520717565727920666f7220746865207a6560008201527f726f206164647265737300000000000000000000000000000000000000000000602082015250565b7f4552433732313a206f776e657220717565727920666f72206e6f6e657869737460008201527f656e7420746f6b656e0000000000000000000000000000000000000000000000602082015250565b7f4552433732313a206d696e7420746f20746865207a65726f2061646472657373600082015250565b7f5075626c696353616c65206973206e6f7420616c6c6f7765642e000000000000600082015250565b7f4552433732313a20617070726f76656420717565727920666f72206e6f6e657860008201527f697374656e7420746f6b656e0000000000000000000000000000000000000000602082015250565b7f496e76616c69642066756e647300000000000000000000000000000000000000600082015250565b7f4f776e61626c653a2063616c6c6572206973206e6f7420746865206f776e6572600082015250565b7f4552433732314d657461646174613a2055524920717565727920666f72206e6f60008201527f6e6578697374656e7420746f6b656e0000000000000000000000000000000000602082015250565b7f4d6178696d756d20737570706c7920726561636865642e000000000000000000600082015250565b7f4552433732313a20617070726f76616c20746f2063757272656e74206f776e6560008201527f7200000000000000000000000000000000000000000000000000000000000000602082015250565b50565b7f4552433732313a207472616e736665722063616c6c6572206973206e6f74206f60008201527f776e6572206e6f7220617070726f766564000000000000000000000000000000602082015250565b7f455243373231456e756d657261626c653a20676c6f62616c20696e646578206f60008201527f7574206f6620626f756e64730000000000000000000000000000000000000000602082015250565b7f4f766572666c6f77203120746f6b656e73000000000000000000000000000000600082015250565b7f496e76616c69642073746167696e672076616c75650000000000000000000000600082015250565b61489481613faf565b811461489f57600080fd5b50565b6148ab81613fc1565b81146148b657600080fd5b50565b6148c281613fcd565b81146148cd57600080fd5b50565b6148d981613fd7565b81146148e457600080fd5b50565b6148f081614023565b81146148fb57600080fd5b5056fea2646970667358221220b5cd89261f15019268bb58c7a102338ff4f323d906be5db5a78f6902b513b00a64736f6c63430008040033",
  "linkReferences": {},
  "deployedLinkReferences": {}
}